:0400000072EF00F0AB
:100008004A82FACF04F0FBCF05F0E9CF06F0EACF39
:1000180007F0E1CF08F0E2CF09F0D9CF0AF0DACF44
:100028000BF0F3CF0CF0F4CF0DF0F6CF0EF0F7CFC6
:100038000FF0F8CF10F0F5CF11F04AC012F04BC016
:1000480013F04CC014F04DC015F0F2AC21D09DBC9B
:100058009EAC03D047EC07F01BD0A3BCA4AC08D0DF
:1000680001D816D00500FA6E4650FD6E47500BD0E9
:10007800A3BEA4AE0DD001D80BD005000001FA6EC6
:100088009551FD6E9651FE6EF850FF6EFA501200B3
:1000980015C04DF014C04CF013C04BF012C04AF01C
:1000A80011C0F5FF10C0F8FF0FC0F7FF0EC0F6FF34
:1000B8000DC0F4FF0CC0F3FF0BC0DAFF0AC0D9FF74
:1000C80009C0E2FF08C0E1FF07C0EAFF06C0E9FF78
:1000D80005C0FBFF04C0FAFF4A9211008AEF05F041
:1000E8002EEC06F0F28EF28C40EC05F0E3EC06F014
:1000F8003DEC07F095EC06F03FEC07F0CFEC06F08E
:10010800000E176E000E166EA6EC05F0000E00012C
:100118008B6F000E8C6F000E8D6F000E8E6FBAEC19
:1001280006F0000E0001926F000E916F000E906FA6
:10013800010E8F6F020E3918D8A4A9D0000E1AEC40
:1001480006F000018A6F010E1AEC06F00001896FB3
:10015800886B020E1AEC06F00001846F8451881334
:100168008A51D8A41CD0800E885D020E8959D8A067
:1001780009D07F0E8B6F020E8C6F000E8D6F000EF4
:100188008E6F06D088C08BF089C08CF08D6B8E6B1B
:100198008BC016F08CC017F0A6EC05F05DD00001FE
:1001A8008A05D8A41ED0030E8B27000E8C238D231E
:1001B8008E238E518D1106E1800E8B5D020E8C59B7
:1001C800D8A008D07F0E8B6F020E8C6F000E8D6F3B
:1001D800000E8E6F8BC016F08CC017F0A6EC05F0E1
:1001E8003BD0020E00018A19D8A41ED0030E8B5FE3
:1001F800000E8C5B8D5B8E5B8E518D1106E1800E3F
:100208008B5D020E8C59D8A008D0000E8B6F000EA3
:100218008C6F000E8D6F000E8E6F8BC016F08CC029
:1002280017F0A6EC05F018D0030E00018A19D8A41F
:1002380013D0800E885D020E8959D8A007D0020E0F
:10024800176E7F0E166EA6EC05F006D088C016F065
:1002580089C017F0A6EC05F0030E396E000E0001F8
:10026800926F000E916F000E906F010E8F6F030E4C
:100278008A19D8A40CD0030E0001856F080E846F6C
:10028800770EE82EFED7842FFCD7852FFAD78FC09C
:1002980016F090C017F0130E196E880E186E69ECE0
:1002A80005F016501710D8A45FD08BC01EF08CC074
:1002B8001FF08DC020F08EC021F012EC05F01EC09A
:1002C80027F01FC028F020C029F053EC06F027C003
:1002D8006CF028C06DF029C06EF0C00E336E1F0E92
:1002E800346E440E356EB80E246E7E0E256E470EA3
:1002F800266E91C01EF092C01FF041EC06F01EC0A1
:1003080021F01FC022F020C023F016EC04F021C019
:1003180030F022C031F023C032F09BEC03F030C043
:1003280069F031C06AF032C06BF048EC02F069C085
:1003380075F06AC076F06BC077F01FEC03F075C0FB
:1003480086F076C087F00001875109EC07F00001BC
:10035800865109EC07F00D0E09EC07F0000E0001BC
:10036800926F000E916F8CD08FC016F090C017F06E
:10037800130E196E880E186E69EC05F01604171026
:10038800D8A408D0090EBFEC05F016C091F017C02C
:1003980092F076D08FC01EF090C01FF041EC06F0AE
:1003A8001EC024F01FC025F020C026F0000E216ECC
:1003B800800E226E3F0E236E16EC04F021C033F03F
:1003C80022C034F023C035F0090EBFEC05F016C08A
:1003D8001EF017C01FF041EC06F01EC030F01FC021
:1003E80031F020C032F09BEC03F030C06CF031C02B
:1003F8006DF032C06EF08FC01EF090C01FF041EC5F
:1004080006F01EC024F01FC025F020C026F0FF0E05
:1004180000018F251E6EFF0E90211F6E41EC06F025
:100428001EC021F01FC022F020C023F016EC04F0FB
:1004380021C033F022C034F023C035F091C01EF043
:1004480092C01FF041EC06F01EC030F01FC031F022
:1004580020C032F09BEC03F030C069F031C06AF084
:1004680032C06BF048EC02F069C075F06AC076F0F3
:100478006BC077F01FEC03F075C091F076C092F076
:1004880000018F4B902B56D66BC06FF00001706B3C
:10049800716B6A356F3701E370816F51746F6EC08D
:1004A8006FF0706B716B6D356F3701E370816F5151
:1004B800736F7451D8B40BD07351745DD8B00ED02B
:1004C8007451000873256F6F180E6F6507D06CC0E4
:1004D80069F06DC06AF06EC06BF012007351D8B449
:1004E8000BD07451735DD8B00ED0735100087425C9
:1004F8006F6F180E6F6507D069C069F06AC06AF03F
:100508006BC06BF01200060E726F6BBF728F6EBFFE
:10051800728D6A8FFF0E6917FF0E6A17000E6B1730
:100528006D8FFF0E6C17FF0E6D17000E6E1773514F
:10053800745DD8B01BD0D8906C376D376E377307A1
:1005480074517319D8B40DD0720772C06FF0070ECA
:100558006F17D8B406D0EFD7D8906B336A336933A6
:10056800742B73517419D8B41FD0F6D77451735DB6
:10057800D8B01AD0D89069376A376B377407745176
:100588007319D8B40DD0720772C06FF0070E6F17C9
:10059800D8B406D0EFD7D8906E336D336C33732B45
:1005A80073517419D8A4F7D772AF0CD0FF0E691B1A
:1005B800FF0E6A1BFF0E6B1B010E6927000E6A23D4
:1005C800000E6B2372AD0CD0FF0E6C1BFF0E6D1B63
:1005D800FF0E6E1B010E6C27000E6D23000E6E239E
:1005E800000E726F69516C276A516D236B516E232F
:1005F8006EAF0ED0FF0E6C1BFF0E6D1BFF0E6E1B39
:10060800010E6C27000E6D23000E6E23010E726F13
:100618006CC016F06DC017F06EC018F074C019F0F9
:1006280072C01AF089EC04F016C069F017C06AF0BD
:1006380018C06BF0120077C079F000017A6B7B6B01
:100648007635793701E37A817951836F8351D8A45C
:1006580009D0000E756F000E766F000E776F000ED2
:10066800786F1200170E796F75C07AF076C07BF03C
:1006780077C07CF079297D6F04D0D8907C337B33A8
:100688007A337D2FFAD700017A517E6F768FFF0E6D
:100698007517FF0E7617000E771775517F6F765115
:1006A800806F7751816F826B8E0E835F83AF16D018
:1006B8008351800A8F0FD8B009D0000E756F000ED5
:1006C800766F000E776F000E786F1200D890823325
:1006D800813380337F33833FF9D715D0170E836575
:1006E8000FD0000E756F000E766F000E776F000E3C
:1006F800786F1200D8907F37803781378237830729
:100708008351D8A4F7D77E51D8B408D0821F811F4F
:10071800801F7F6D000E8023812382237FC075F0A8
:1007280080C076F081C077F082C078F0120032C0C5
:1007380060F00001616B626B3134603701E3618105
:100748006051636F6351D8A407D0000E306E000E5D
:10075800316E000E326E120035C060F0616B626B54
:100768003434603701E361816051686F6851D8A4FF
:1007780007D0000E306E000E316E000E326E120081
:1007880068517B0F632732C068F03550681B800EB4
:100798006817318E348EFF0E3316FF0E3416000E96
:1007A8003516000E646F000E656F000E666F070E3B
:1007B800676F30A006D03350642734506523355016
:1007C8006623D890323231323032D89033363436CC
:1007D8003536672FEED7090E676F30A006D0335035
:1007E80064273450652335506623D890323231322D
:1007F8003032D890663365336433672FEED764C0E0
:1008080016F065C017F066C018F063C019F068C02C
:100818001AF089EC04F016C030F017C031F018C097
:1008280032F0120023C027F0286A296A22342736BA
:1008380001E3288027502E6E2E50D8A407D0000E32
:10084800216E000E226E000E236E120026C027F0C5
:10085800286A296A2534273601E3288027502F6E15
:100868002F50D8A407D0000E216E000E226E000E65
:10087800236E1200000E2B6E000E2C6E000E2D6ED5
:100888002F50890F2E5E23C02FF026502F1A800E6E
:100898002F16228EFF0E2116FF0E2216000E23168B
:1008A800258EFF0E2416FF0E2516000E2616180E8E
:1008B8002A6ED8902B362C362D362450215C2550A4
:1008C800225826502358D8A007D02450215E2550FE
:1008D800225A2650235A2B80D89021362236233686
:1008E8002A2EE7D72BC016F02CC017F02DC018F011
:1008F8002EC019F02FC01AF089EC04F016C021F0B0
:1009080017C022F018C023F012001950D8B405D02F
:10091800165017101810D8A40CD0000E166E000E22
:10092800176E000E186E1200192AD8901832173256
:100938001632000E16141B6E000E17141C6EFE0ED7
:1009480018141D6E1B501C101D10D8B40CD0ECD7F9
:10095800192A010E1626000E1722000E1822D8900A
:10096800183217321632000E16141B6E000E1714AA
:100978001C6EFF0E18141D6E1B501C101D10D8B4D1
:1009880006D0E6D71906D89016361736183617BE89
:1009980003D0020E1960F6D719A0179ED890193205
:1009A800195018121A50D8A4188E16C016F017C06D
:1009B80017F018C018F0120043EC07F0486E26D064
:1009C800010E396E4844E846030B030B366E485057
:1009D800030B386E376A36C001F0000EEEEC05F0F6
:1009E8003850016E010EEEEC05F012004850371237
:1009F800020E396E37C001F0020EEEEC05F0000E63
:100A0800366E000E386E000E376E12003950000A2E
:100A1800D8B4D6D7010AD8A41200E8D78E0E266E0D
:100A280006D0D890213220321F321E32262A000EDC
:100A38001E14226E000E1F14236E000E2014246E46
:100A4800FF0E2114256E2250231024102510D8A43F
:100A5800E8D71EC016F01FC017F020C018F026C037
:100A680019F0000E1A6E89EC04F016C01EF017C0BB
:100A78001FF018C020F012003BEC07F0AE0E186E05
:100A88000B0E196EFBEC06F0C5EC06F0A00E2CEC74
:100A980007F0FE0E28EC07F0920E166E0E0E176E7B
:100AA80023EC07F0600E166E0E0E176E0FEC07F0B3
:100AB800C00E166E090E176E14EC07F0700E166E47
:100AC8000E0E176E1EEC07F0120018501910D8B44D
:100AD80018D0010E1A6E04D0D890183619361A2A72
:100AE80019AEFAD71850165C19501758D8A004D068
:100AF8001850165E1950175AD890193218321A2EF3
:100B0800F1D716C016F017C017F01200940EF66E43
:100B18000E0EF76E000EF86E0900F5CF49F000EEE4
:100B28008BF0080EEE6AE806FDE100EE36F0130ED3
:100B3800EE6AE806FDE14A904A92000EF86E00015E
:100B480074EF00F016C018F017C019F0D8901932D9
:100B58001832D8901932183218500F01586F16C031
:100B680018F0030E1816183AF00E18165751CF0B36
:100B78001810576F12001A6E1AC018F01846184647
:100B8800C2501818830B1818C26EC280C282C2B233
:100B9800FED7C450196E186AC3501824166E000E7A
:100BA8001920176E1200A49E43EC07F0486EEBEC78
:100BB80006F0D8B00AD0F3EC06F0D8A003D075EC54
:100BC80006F005D085EC06F002D065EC06F045ECA1
:100BD80007F01200036E808C809E03C002F01F0E87
:100BE80002168050E00B0210806E000E946E01C059
:100BF80082FF00D000D0808E00D000D0808C946816
:100C08001200000E896E000E8A6E000E8B6E9268BE
:100C1800BE0E936E9468FC0E0F013A6F390E396F51
:100C28002F0E386F000E616EF18E1200176E9468E9
:100C3800809C808E17C016F01F0E16168050E00B91
:100C48001610806E00D000D082CF18F0808E808C75
:100C58001850120041EC07F005EC06F002EC07F022
:100C6800D9EC06F0A3EC06F0CFEC06F0E3EC06F0C6
:100C780095EC06F0AFEC06F012001EC016F01FC08F
:100C880017F0186A8E0E196E000E1A6E89EC04F0B1
:100C980016C01EF017C01FF018C020F01200275011
:100CA80028102910D8B406D0000E271A000E281ACA
:100CB800800E291A27C027F028C028F029C029F05B
:100CC80012003C503D10D8B4120001D812000500A3
:100CD800FA6E3C50FD6E3D50FE6EF850FF6EFA50B5
:100CE80012003E503F10D8B4120001D8120005007F
:100CF800FA6E3E50FD6E3F50FE6EF850FF6EFA5091
:100D080012003A503B10D8B4120001D81200050066
:100D1800FA6E3A50FD6E3B50FE6EF850FF6EFA5078
:100D28001200000ECC6E000ECF6E000ECE6ECECF2F
:100D380093F0CFCF94F09E90010ECD6E1200010E6D
:100D4800C26E000EC16E0E0EC06E000EC36E000E97
:100D5800C46E9D8C1200080E706E800E716E240E8B
:100D6800726EA00E756E010E766E1200000E0F01E7
:100D7800386F000E3A6F000E926E9468808E808CE9
:100D880012006CBA1200060E6C12000E6D6E000E88
:100D98006B6E6C8A12003C0E0F01576F4F0E586F26
:100DA800000E596FFC0E48171200070E0F01546F02
:100DB800000E556F000E566FF30E481712009F0E67
:100DC800BB6E000EBC6E9E92040EBA6E12006DA42D
:100DD80003D0016A012A01D0016A013012006DAA0C
:100DE80003D0016A012A01D0016A0130120018C03B
:100DF80016F019C017F019EC07F01200720ED36E36
:100E0800040ED26EC00E9B6E1200166EA4A8FED7FA
:100E180016C073FF120016C03CF017C03DF0120058
:100E280016C03EF017C03FF0120016C095F017C06C
:100E380096F0120016C03AF017C03BF0120016C028
:100E480046F017C047F01200166E16C06AFF12006F
:100E5800166E16C06EFF1200495034EC07F01200EF
:100E6800016E01C06FFF1200000E396E1200A38ED2
:100E78001200BA841200CD801200D09E12006F506A
:0D0E880012006C8812009E9C120012005592
:020000040020DA
:08000000FFFFFFFFFFFFFFFF00
:020000040030CA
:0E000000FF281F3CFFBF85FF0FC00FE00F4021
:00000001FF
