:040000008DEF00F090
:100008004782FACF07F0FBCF08F0E9CF09F0EACF33
:100018000AF0E1CF0BF0E2CF0CF0D9CF0DF0DACF38
:100028000EF0F3CF0FF0F4CF10F0F6CF11F0F7CFBA
:1000380012F0F8CF13F0F5CF14F047C015F048C010
:1000480016F049C017F04AC018F0F2AC3CD0A3B87B
:10005800A4A808D001D837D00500FA6E4350FD6E29
:10006800445021D0A3BAA4AA09D001D82CD00500A5
:100078000001FA6EF851FD6EF95115D0A0B6A1A68F
:1000880008D001D820D00500FA6E3250FD6E3350EA
:100098000AD09DB69EA60CD001D815D00500FA6EE0
:1000A8003050FD6E3150FE6EF850FF6EFA5012005F
:1000B8009DB89EA803D039EC17F005D09DBA9EAA2A
:1000C80002D0B0EC15F018C04AF017C049F016C0BD
:1000D80048F015C047F014C0F5FF13C0F8FF12C070
:1000E800F7FF11C0F6FF10C0F4FF0FC0F3FF0EC0FA
:1000F800DAFF0DC0D9FF0CC0E2FF0BC0E1FF0AC058
:10010800EAFF09C0E9FF08C0FBFF07C0FAFF4792F2
:10011800110087EF15F08A0E0001986F000E996F95
:10012800C1EF05F0250EAF19D8B405D0AF51C9EC11
:1001380018F0C1EF05F0000E0001AC6F000EAB6FB8
:10014800000EA76F000EA66F04D00001A685884B8D
:10015800892B88C0F6FF89C0F7FF0800F550300AE0
:10016800D8B4F3D788C0F6FF89C0F7FF0800F55068
:10017800B5EC17F0D8A034D0000E0001AC6F000E1B
:10018800AB6FABC027F0ACC028F0000E2A6E0A0E89
:10019800296E90EC17F027C0ABF028C0ACF0D00E59
:1001A80000018D6FFF0E8E6F88C0F6FF89C0F7FFC4
:1001B8000800F5508F6F906B8D518F278E519023CB
:1001C8008F51AB279051AC23884B892B88C0F6FF01
:1001D80089C0F7FF0800F550B5EC17F0D8B0D1D7B3
:1001E80088C0F6FF89C0F7FF0800F5502E0AD8A48A
:1001F80030D00001A78D884B892B000EAE6F000E02
:10020800AD6F1CD0ADC027F0AEC028F0000E2A6E2E
:100218000A0E296E90EC17F088C0F6FF89C0F7FF28
:100228000800F5502726000E2822D00E27240001AA
:10023800AD6FFF0E2820AE6F884B892B88C0F6FF64
:1002480089C0F7FF0800F550B5EC17F0D8A052D0D8
:10025800D9D7000E0001AE6F000EAD6FA7894AD046
:10026800A7855FD0AD51AE11D8B40AD09A51AD5D13
:100278009B51AE59D8B004D0ADC09AF0AEC09BF037
:10028800AB519A5DAC519B59D8B005D09A51AB5F30
:100298009B51AC5B08D0000EAC6F000EAB6F03D067
:1002A800200EC9EC18F00001AB07D8A0AC07AB29A9
:1002B800F7E1AC29D8B40BD0F3D796C0D9FF97C0D3
:1002C800DAFFDF50C9EC18F00001964B972B9A071C
:1002D800D8A09B079A29F1E19B29D8B4C1EF05F072
:1002E800ECD7AF0E966F000E976F000E9B6F010E46
:1002F8009A6FB8D788C0F6FF89C0F7FF0001884B0E
:10030800892B0800F5CFAFF0AF51000AD8B412001E
:10031800640AD8B406D0020AD8B4A2D70F0AD8A45F
:10032800E0D7070EA715D8B405D3A7A904D0000EA7
:10033800AE6F060EAD6F98C0D9FF99C0DAFFDECF59
:10034800A8F0DECFA9F0DDCFAAF0030E9827000EA3
:100358009923AAAF11D0A8C019F0A9C01AF0AAC051
:100368001BF0A3EC17F019C0A8F01AC0A9F01BC025
:10037800AAF0030E0001A613000EA56F000EA46FCD
:10038800A851A911AA11D8B487D0820E8D6FFF0E7B
:100398008E6FA8C08FF0A9C090F0AAC091F0ABC032
:1003A80092F0100E05D0D8909233913390338F335A
:1003B800E82EF9D78F518D25A46F000E8E21A56FD9
:1003C800A407D8A0A507A4C027F0A5C028F0000E50
:1003D8002A6E030E296E90EC17F027C0A4F028C0EF
:1003E800A5F0A4C01FF0A5C020F0000E226E0A0ED2
:1003F800216EDEEC12F01FC0A4F020C0A5F00001B1
:10040800A5AF03D0A407D8A0A507A451000846ECBF
:100418000AF06CC09CF06DC09DF06EC09EF09CC050
:1004280060F09DC061F09EC062F0A8C063F0A9C0F2
:1004380064F0AAC065F005EC10F060C09CF061C0E3
:100448009DF062C09EF09CC066F09DC067F09EC0A3
:1004580068F0000E0001696F800E6A6F3F0E6B6FC7
:100468004DEC12F00001D8B004D0A407D8A0A5071D
:1004780013D09CC066F09DC067F09EC068F0000E67
:10048800696F200E6A6F410E6B6F4DEC12F0000120
:10049800D8A002D0A44BA52BAEBF06D0AE511BE10D
:1004A8000D0EAD5DD8B017D0A8C076F0A9C077F012
:1004B800AAC078F0AD5156EC0CF06CC079F06DC064
:1004C8007AF06EC07BF085EC0DF076C0A8F077C0AE
:1004D800A9F078C0AAF00001A5BF06D0A5511FE178
:1004E8000A0EA45DD8B01BD0A851A911AA11D8B47E
:1004F80054D0A8C073F0A9C074F0AAC075F089ECF4
:100508000FF000017351741175117611D8B4A5BF9D
:1005180044D0A55104E1020EA45DD8A03ED09CC0F1
:1005280066F09DC067F09EC068F0700E696F890E16
:100538006A6F400E6B6F4DEC12F00001D8B002D01C
:10054800F70E01D0F80EA427FF0EA523A45146EC00
:100558000AF06CC09CF06DC09DF06EC09EF0A8C003
:1005680019F0A9C01AF0AAC01BF09CC01CF09DC0CD
:100578001DF09EC01EF05CEC0EF019C0A0F01AC071
:10058800A1F01BC0A2F01CC0A3F0000E0001A86FD0
:10059800000EA96F000EAA6F33D0A8C073F0A9C0CF
:1005A80074F0AAC075F089EC0FF073C0A0F074C0A5
:1005B800A1F075C0A2F076C0A3F0A8C082F0A9C0CF
:1005C80083F0AAC084F0A0C021F0A1C022F0A2C08C
:1005D80023F0A3C024F004EC15F021C085F022C05C
:1005E80086F023C087F095EC16F082C0A8F083C08F
:1005F800A9F084C0AAF0000E0001A56F000EA46F38
:10060800010EAF6F0A0EAF19D8B418D0AF51040D50
:10061800F50EF324F66E7C0EF420F76E0900F55003
:10062800A05D0900F550A1590900F550A25909002B
:10063800F550A359D8A002D0AF2BE4D7AFC08DF0A6
:100648008E6B8DBF8E07AD518D27AE518E23A45171
:100658008D27A5518E238D51AB5F8E51AC5BAD516B
:10066800AE11D8B403D0AB07D8A0AC07030EA615BB
:100678008D6F000EA7158E6F8D518E11D8B403D0D3
:10068800AB07D8A0AC07A6A525D0030EA6158D6F7D
:10069800000EA7158E6F8D518E11D8B40BD02D0E6C
:1006A800C9EC18F007D0300EC9EC18F00001AB0700
:1006B800D8A0AC070001ACBF68D0AC51F4E1AB05E1
:1006C800D8A063D0F0D7200EC9EC18F00001AB0712
:1006D800D8A0AC07ACBF05D0AC51F5E1AB05D8B09C
:1006E800F2D7030EA6158D6F000EA7158E6F8D51CC
:1006F8008E11D8B44AD02D0EC9EC18F046D0A0C03F
:1007080019F0A1C01AF0A2C01BF0A3C01CF0000190
:10071800AF51040DF50EF324F66E7C0EF420F76E3F
:100728000900F5CF1DF00900F5CF1EF00900F5CF3F
:100738001FF00A00F5CF20F020EC13F019C09CF050
:100748001AC09DF01BC09EF01CC09FF09CC026F0F4
:100758009DC027F09EC028F09FC029F00A0E2A6E7F
:10076800000E2B6E000E2C6E000E2D6E44EC14F055
:1007780026C09CF027C09DF028C09EF029C09FF09D
:1007880000019C51300FC9EC18F00001AF07AF29E8
:10079800D8B408D0B4D7300EC9EC18F00001A407BB
:1007A800D8A0A507A5BF05D0A551F5E1A405D8B0E7
:1007B800F2D7AEBF09D0AE5104E1090EAD5DD8A0A5
:1007C80003D0080EAF6F02D0ADC0AFF0AF51AD5F30
:1007D800000EAFBFFF0EAE5BAF51D8B403D02E0EE4
:1007E800C9EC18F00001AF5146EC0AF06CC093F068
:1007F8006DC094F06EC095F0A8C063F0A9C064F015
:10080800AAC065F093C060F094C061F095C062F032
:1008180005EC10F060C073F061C074F062C075F050
:1008280089EC0FF073C0A0F074C0A1F075C0A2F0FD
:1008380076C0A3F06DD0A0C019F0A1C01AF0A2C074
:100848001BF0A3C01CF00001AF51040DF50EF324FA
:10085800F66E7C0EF420F76E0900F5CF1DF0090046
:10086800F5CF1EF00900F5CF1FF00A00F5CF20F0F4
:1008780020EC13F019C09CF01AC09DF01BC09EF02C
:100888001CC09FF09CC026F09DC027F09EC028F099
:100898009FC029F00A0E2A6E000E2B6E000E2C6ED9
:1008A800000E2D6E44EC14F026C09CF027C09DF07D
:1008B80028C09EF029C09FF000019C51300FC9EC60
:1008C80018F0A0C026F0A1C027F0A2C028F0A3C04D
:1008D80029F00001AF51040DF50EF324F66E7C0EDD
:1008E800F420F76E0900F5CF2AF00900F5CF2BF0B8
:1008F8000900F5CF2CF00A00F5CF2DF044EC14F0E8
:1009080026C0A0F027C0A1F028C0A2F029C0A3F0FB
:100918000001AF07AF29D8B408D08DD7300EC9EC85
:1009280018F00001AD07D8A0AE07AD51AE11D8B48C
:1009380024D1F4D798C0D9FF99C0DAFFDECFA0F050
:10094800DDCFA1F0000EA1BFFF0EA26FA36F020EB4
:100958009827000E9923A3AF0AD0030EA613A31F4E
:10096800A21FA11FA06D000EA123A223A323AD5196
:10097800AE11D8A408D0A051A111A211A311D8A4D6
:1009880002D0AD4BAE2B010EAF6F0A0EAF19D8B423
:1009980018D0AF51040DF50EF324F66E7C0EF4203A
:1009A800F76E0900F550A05D0900F550A15909003E
:1009B800F550A2590900F550A359D8A002D0AF2B81
:1009C800E4D7800EAFBF7F0E8D6FAD51AF5DAE51D6
:1009D800800A8D59D8B003D0ADC0AFF010D0AE5159
:1009E800800A8D6FAF51AD5D800EAFBF7F0E8D5900
:1009F800D8B005D0AF51AD6FAE6BADBFAE07AB5140
:100A0800AC11D8B40DD0030EA6158D6F000EA71526
:100A18008E6F8D518E11D8B403D0AB07D8A0AC0718
:100A2800A7AD13D0AB51AD5DAE51800A8D6FAC51FF
:100A3800800A8D59D8B005D0AD51AB5FAE51AC5BD3
:100A480004D0000EAC6F000EAB6F800EAFBF7F0EF0
:100A58008D6FAB51AF5DAC51800A8D59D8B007D0BE
:100A6800AF51AB5F000EAFBFFF0EAC5B04D0000E02
:100A7800AC6F000EAB6FA6A51AD0030EA6158D6F2E
:100A8800000EA7158E6F8D518E11D8B403D02D0E80
:100A9800C9EC18F00001AB51AC11D8B465D0300ED8
:100AA800C9EC18F00001AB07D8A0AC07F4D7AB51DC
:100AB800AC11D8B40BD0200EC9EC18F00001AB076C
:100AC800D8A0AC07AB51AC11D8A4F5D7030EA61526
:100AD8008D6F000EA7158E6F8D518E11D8B444D02E
:100AE8002D0EC9EC18F040D0ADC08DF0AEC08EF020
:100AF8000001D8908D378E37D8908D378E37F50E08
:100B08008D25F66E7C0E8E21F76E0900F5CF1DF04F
:100B18000900F5CF1EF00900F5CF1FF00A00F5CF48
:100B280020F0A0C019F0A1C01AF0A2C01BF0A3C009
:100B38001CF020EC13F019C026F01AC027F01BC0D7
:100B480028F01CC029F00A0E2A6E000E2B6E000E2B
:100B58002C6E000E2D6E44EC14F02650300F000160
:100B6800AF6FAF51C9EC18F00001AD07D8A0AE07C0
:100B7800AD29BAE1AE29D8A4B7D788C0F6FF89C095
:100B8800F7FF0001884B892B0800F5CFAFF0AF5174
:100B9800D8B4120096EF00F0000E0101636F000E4A
:100BA800646F000E656F000E5C6F000E576F000ECD
:100BB800586F000E596F15EC18F0EFEC16F020EC9A
:100BC80018F0F28EF28C77EC14F06B0E0001886F3F
:100BD8007D0E896F8FEC00F09BD1000E01015B6FD9
:100BE800000E5A6F0ED0D80E01015A25D96E000E8C
:100BF8005B21DA6E5A517CEC17F0DF6E01015A4B1B
:100C08005B2B37500001B06FB16BB05101015A5DD9
:100C18005B51800A0001B26FB151800AB259D8B055
:100C28004DD1E1D7310E886F7F0E896F8FEC00F0C0
:100C3800000E1F6E000E1E6E010ED6EC14F063C17E
:100C480076F064C177F065C178F0000E0001796F25
:100C5800000E7A6F3F0E7B6F85EC0DF076C063F166
:100C680077C064F178C065F1000E0001666FC80EA8
:100C7800676F420E686F63C169F064C16AF065C14D
:100C88006BF04DEC12F00001D8B0D0D0000E01018D
:100C9800636FC80E646F420E656FC8D0F80E00010E
:100CA800886F7E0E896F8FEC00F0000E1F6E000EAD
:100CB8001E6E020ED6EC14F063C182F064C183F09C
:100CC80065C184F0000E0001856F000E866F3F0E2F
:100CD800876F95EC16F082C063F183C064F184C01D
:100CE80065F1010165AFA2D0000E636F000E646F5D
:100CF800000ED2D7970E0001886F7F0E896F8FEC98
:100D080000F0000E0101606F010E5F6F1ED0D80E5B
:100D18005F25D96E000E6021DA6EFF0E0001B06FFC
:100D2800FF0EB16F5FC1B2F060C1B3F0B051B2272E
:100D3800B151B323540EB225E16E010EB321E26E18
:100D4800DFCFE7FF01015F4B602BD80E5F25D96E1F
:100D5800000E6021DA6E0D0EDE18D8A4D8D7FF0E6B
:100D68000001B06FFF0EB16F5FC1B2F060C1B3F0A8
:100D7800B051B227B151B323540EB225D96E010E2A
:100D8800B321DA6E000EDF6E540E2D6E010E2E6E3C
:100D9800F4EC10F02DC05DF12EC05EF15DC121F0C4
:100DA8005EC122F0D3EC16F021C063F122C064F1D9
:100DB80023C065F101015EBF06D05E513EE1650EBC
:100DC8005D5DD8B03AD07B0E0001636FCC0E646FC6
:100DD800400E656F5DC121F05EC122F0D3EC16F0C4
:100DE80021C060F022C061F023C062F005EC10F071
:100DF80060C073F061C074F062C075F089EC0FF0E8
:100E080073C052F174C053F14C0E0001886F7F0E0D
:100E1800896F5DC18AF05EC18BF08FEC00F052C122
:100E28001EF053C11FF0000ED6EC14F063C157F149
:100E380064C158F165C159F156D05A0E0001886F46
:100E48007E0E896F8FEC00F04ED0150E0001886F72
:100E58007F0E896F63C18AF064C18BF065C18CF025
:100E68008FEC00F040D0D00E0001886F7D0E896FA6
:100E78008FEC00F038D001015C51D8A402D0010EEB
:100E880001D0000E5C6F5C51D8B408D07F0E000111
:100E9800886F7F0E896F8FEC00F025D0660E0001F9
:100EA800886F7F0E896F8FEC00F01DD0D50E000182
:100EB800886F7E0E896F8FEC00F015D00001D85135
:100EC800440AD8B4EBD60C0AD8B4CDD7010AD8B4A2
:100ED800A9D6190AD8B4CFD7030AD8B40BD7070AAA
:100EE800D8B4B3D7E3D7000E376E000E356E000EB8
:100EF8003A6ED80E0001886F7F0E896F8FEC00F074
:100F0800B9D2000E376E000E356E000E3A6EB2D2B0
:100F18003A50010AD8B461D6030AD8B4F2D7AAD293
:100F28000001E8510101676F666B0001E951010199
:100F38006613CD0E286ECC0E296E400E2A6E66C141
:100F480021F067C122F0D3EC16F021C025F022C0B1
:100F580026F023C027F080EC10F025C066F026C0EC
:100F680067F027C068F0000E0001696FA00E6A6F75
:100F7800400E6B6F4DEC12F00001D8B025D0000E7A
:100F8800666FA00E676FC00E686FCD0E286ECC0E10
:100F9800296E400E2A6E66C121F067C122F0D3EC9B
:100FA80016F021C025F022C026F023C027F080ECDF
:100FB80010F025C069F026C06AF027C06BF04DEC30
:100FC80012F00001D8A0A5D0210E886F7E0E896F7F
:100FD8008FEC00F0C30E0001886F7F0E896F66C129
:100FE80021F067C122F0D3EC16F021C025F022C011
:100FF80026F023C027F0CD0E286ECC0E296E400EA9
:101008002A6E80EC10F025C08AF026C08BF027C02D
:101018008CF08FEC00F066C1B0F067C1B1F0000150
:10102800B01FB11FB04BB12BCD0E636FCC0E646FE8
:10103800400E656F57C160F058C161F059C162F048
:1010480005EC10F060C073F061C074F062C075F018
:1010580089EC0FF00001B05173250101616F0001A7
:10106800B15174210101626FEC0E0001886F7F0E8F
:10107800896F61C18AF062C18BF08FEC00F00101C9
:1010880062BF14D0800E615D020E6259D8A00ED0E6
:10109800020E1F6E7F0E1E6E030ED6EC14F0000EAD
:1010A8000101576FC80E586F420E0FD062AF0FD0B4
:1010B800000E1F6E000E1E6E030ED6EC14F0000E0E
:1010C8000101576F000E586F000E596FD0D161C1E2
:1010D8001EF062C11FF0030ED6EC14F061C121F0BE
:1010E80062C122F0D3EC16F021C025F022C026F010
:1010F80023C027F0CD0E286ECC0E296E400E2A6E26
:1011080080EC10F025C057F126C058F127C059F1DE
:10111800AED1CD0E286ECC0E296E400E2A6E66C159
:1011280021F067C122F0D3EC16F021C025F022C0CF
:1011380026F023C027F080EC10F025C066F026C00A
:1011480067F027C068F0000E0001696F000E6A6F33
:10115800400E6B6F4DEC12F00001D8A026D0CD0EDA
:10116800286ECC0E296E400E2A6E66C121F067C12A
:1011780022F0D3EC16F021C025F022C026F023C0BF
:1011880027F080EC10F025C066F026C067F027C075
:1011980068F0000E0001696FA00E6A6F400E6B6F59
:1011A8004DEC12F00001D8A04AD0000E666F000E78
:1011B800676FC00E686FCD0E286ECC0E296E400E7C
:1011C8002A6E66C121F067C122F0D3EC16F021C067
:1011D80025F022C026F023C027F080EC10F025C0AF
:1011E80069F026C06AF027C06BF04DEC12F00001E0
:1011F800D8A04DD0000E666FA00E676FC00E686F46
:10120800CD0E286ECC0E296E400E2A6E66C121F0D6
:1012180067C122F0D3EC16F021C025F022C026F0D9
:1012280023C027F080EC10F025C069F026C06AF0D2
:1012380027C06BF04DEC12F00001D8B028D0B10EE9
:10124800886F7E0E896F8FEC00F0C30E0001886FE7
:101258007F0E896F66C121F067C122F0D3EC16F0CA
:1012680021C025F022C026F023C027F07B0E286E6F
:10127800CC0E296E400E2A6E80EC10F025C08AF044
:1012880026C08BF027C08CF08FEC00F0F0D0CD0E8C
:10129800286ECC0E296E400E2A6E66C121F067C1F9
:1012A80022F0D3EC16F021C025F022C026F023C08E
:1012B80027F080EC10F025C066F026C067F027C044
:1012C80068F0000E0001696F800E6A6F3F0E6B6F49
:1012D8004DEC12F00001D8A026D0CD0E286ECC0E11
:1012E800296E400E2A6E66C121F067C122F0D3EC48
:1012F80016F021C025F022C026F023C027F080EC8C
:1013080010F025C066F026C067F027C068F0000E10
:101318000001696F000E6A6F400E6B6F4DEC12F0A2
:101328000001D8A04AD0000E666F800E676FBF0E0E
:10133800686FCD0E286ECC0E296E400E2A6E66C1DF
:1013480021F067C122F0D3EC16F021C025F022C0AD
:1013580026F023C027F080EC10F025C069F026C0E5
:101368006AF027C06BF04DEC12F00001D8A04DD008
:10137800000E666F000E676FC00E686FCD0E286E88
:10138800CC0E296E400E2A6E66C121F067C122F08C
:10139800D3EC16F021C025F022C026F023C027F098
:1013A80080EC10F025C069F026C06AF027C06BF009
:1013B8004DEC12F00001D8B028D08B0E886F7E0E4D
:1013C800896F8FEC00F0C30E0001886F7F0E896F64
:1013D80066C121F067C122F0D3EC16F021C025F0D8
:1013E80022C026F023C027F07B0E286ECC0E296E73
:1013F800400E2A6E80EC10F025C08AF026C08BF0D3
:1014080027C08CF08FEC00F032D001015C51D8B4C9
:101418002ED0AD0E0001886F7F0E896F8FEC00F023
:10142800C30E0001886F7F0E896F66C121F067C106
:1014380022F0D3EC16F021C025F022C026F023C0FC
:1014480027F07B0E286ECC0E296E400E2A6E80EC9B
:1014580010F025C08AF026C08BF027C08CF08FECE6
:1014680000F005D0000E3B6E000E406E51D5000E08
:101478003D6EF8D74050010AD8B452D5030AD8B403
:10148800F6D746D50001726F000172AF06D1726DB2
:101498007251800A120FD8A093D0000E2A6E030E44
:1014A800296E000E226E0A0E216E000E1C6E640E4E
:1014B8001B6E7251196E1A6A19BE1A06D8EC13F00F
:1014C80019C01FF01AC020F0DEEC12F0090E1F241C
:1014D800276E000E2020286E90EC17F0440E27246B
:1014E800F66E7D0E2820F76E0900F5CF63F009002F
:1014F800F5CF64F00A00F5CF65F0000E226E640E99
:10150800216E000172511F6E206A1FBE2006DEEC9C
:1015180012F0120E1F24276E000E2020286E000ED7
:101528002A6E030E296E90EC17F0440E2724F66EEF
:101538007D0E2820F76E0900F5CF60F00900F5CF81
:1015480061F00A00F5CF62F005EC10F060C06FF0B2
:1015580061C070F062C071F06FC060F070C061F07F
:1015680071C062F0000E2A6E030E296E000E1C6E0A
:101578000A0E1B6E00017251196E1A6A19BE1A06FC
:10158800D8EC13F019C027F01AC028F090EC17F027
:10159800440E2724F66E7D0E2820F76E0900F5CF3D
:1015A80063F00900F5CF64F00A00F5CF65F005ECAB
:1015B80010F060C06CF061C06DF062C06EF0120097
:1015C80000017251800A750FD8A054D0000E226E07
:1015D8000A0E216E72511F6E206A1FBE2006DEECB5
:1015E80012F0090E1F24276E000E2020286E000E10
:1015F8002A6E030E296E90EC17F0440E2724F66E1F
:101608007D0E2820F76E0900F5CF60F00900F5CFB0
:1016180061F00A00F5CF62F0000E2A6E030E296E03
:10162800000E1C6E0A0E1B6E00017251196E1A6AAA
:1016380019BE1A06D8EC13F019C027F01AC028F002
:1016480090EC17F0440E2724F66E7D0E2820F76ED6
:101658000900F5CF63F00900F5CF64F00A00F5CF73
:1016680065F005EC10F060C06CF061C06DF062C010
:101678006EF0120000017251030D440EF324F66E51
:101688007D0EF420F76E0900F5CF6CF00900F5CF58
:101698006DF00A00F5CF6EF012007251800A120F39
:1016A800D8A093D0000E2A6E030E296E000E226E6B
:1016B8000A0E216E000E1C6E640E1B6E7251196E9E
:1016C8001A6A19BE1A06D8EC13F019C01FF01AC00E
:1016D80020F0DEEC12F0090E1F24276E000E2020E9
:1016E800286E90EC17F01D0E2724F66E7D0E28202C
:1016F800F76E0900F5CF63F00900F5CF64F00A0032
:10170800F5CF65F0000E226E640E216E0001725155
:101718001F6E206A1FBE2006DEEC12F0120E1F2478
:10172800276E000E2020286E000E2A6E030E296EEA
:1017380090EC17F01D0E2724F66E7D0E2820F76E0C
:101748000900F5CF60F00900F5CF61F00A00F5CF88
:1017580062F005EC10F060C06FF061C070F062C01C
:1017680071F06FC060F070C061F071C062F0000E7F
:101778002A6E030E296E000E1C6E0A0E1B6E0001E7
:101788007251196E1A6A19BE1A06D8EC13F019C0EC
:1017980027F01AC028F090EC17F01D0E2724F66EDB
:1017A8007D0E2820F76E0900F5CF63F00900F5CF0C
:1017B80064F00A00F5CF65F005EC10F060C06CF03D
:1017C80061C06DF062C06EF0120000017251800AB3
:1017D800750FD8A054D0000E226E0A0E216E7251D9
:1017E8001F6E206A1FBE2006DEEC12F0090E1F24B1
:1017F800276E000E2020286E000E2A6E030E296E1A
:1018080090EC17F01D0E2724F66E7D0E2820F76E3B
:101818000900F5CF60F00900F5CF61F00A00F5CFB7
:1018280062F0000E2A6E030E296E000E1C6E0A0E60
:101838001B6E00017251196E1A6A19BE1A06D8EC8D
:1018480013F019C027F01AC028F090EC17F01D0EFD
:101858002724F66E7D0E2820F76E0900F5CF63F079
:101868000900F5CF64F00A00F5CF65F005EC10F03B
:1018780060C06CF061C06DF062C06EF012000001D3
:101888007251030D1D0EF324F66E7D0EF420F76ED3
:101898000900F5CF6CF00900F5CF6DF00A00F5CF1F
:1018A8006EF012000001756F6D0E00017565A0D015
:1018B800000E2A6E030E296E000E226E0A0E216E8D
:1018C800000E1C6E640E1B6E75C019F01A6AD8ECF7
:1018D80013F019C01FF01AC020F0DEEC12F0090E48
:1018E8001F24276E000E2020286E90EC17F0440E5F
:1018F8002724F66E7D0E2820F76E0900F5CF63F0D9
:101908000900F5CF64F00A00F5CF65F0000E226EED
:10191800640E216E75C01FF0206ADEEC12F0120E04
:101928001F24276E000E2020286E000E2A6E030E3C
:10193800296E90EC17F0440E2724F66E7D0E2820B1
:10194800F76E0900F5CF60F00900F5CF61F00A00E5
:10195800F5CF62F005EC10F060C072F061C073F072
:1019680062C074F0000E2A6E030E296E000E1C6E03
:101978000A0E1B6E75C019F01A6AD8EC13F019C05C
:1019880027F01AC028F090EC17F0440E2724F66EC2
:101998007D0E2820F76E0900F5CF63F00900F5CF1A
:1019A80064F00A00F5CF65F072C060F073C061F0B2
:1019B80074C062F005EC10F060C06FF061C070F0A8
:1019C80062C071F06FC060F070C061F071C062F009
:1019D800000E0001636F000E646F3F0E656F05EC2B
:1019E80010F060C06CF061C06DF062C06EF0120063
:1019F8000A0E0001756564D0000E2A6E030E296E6A
:101A0800000E1C6E0A0E1B6E75C019F01A6AD8EC0F
:101A180013F019C027F01AC028F090EC17F0440E04
:101A28002724F66E7D0E2820F76E0900F5CF63F0A7
:101A38000900F5CF64F00A00F5CF65F0000E226EBC
:101A48000A0E216E75C01FF0206ADEEC12F0090E36
:101A58001F24276E000E2020286E000E2A6E030E0B
:101A6800296E90EC17F0440E2724F66E7D0E282080
:101A7800F76E0900F5CF60F00900F5CF61F00A00B4
:101A8800F5CF62F005EC10F060C072F061C073F041
:101A980062C074F072C060F073C061F074C062F02C
:101AA800000E0001636F000E646F3F0E656F05EC5A
:101AB80010F060C06CF061C06DF062C06EF0120092
:101AC80000017551030D440EF324F66E7D0EF420CB
:101AD800F76E0900F5CF60F00900F5CF61F00A0054
:101AE800F5CF62F0000E636F000E646F3F0E656FF6
:101AF80005EC10F060C06CF061C06DF062C06EF073
:101B0800120078C07CF000017D6B7E6B77357C37E6
:101B180001E37D817C51816F7BC07CF07D6B7E6BA6
:101B28007A357C3701E37D817C51806F8151D8B44F
:101B38000BD08051815DD8B00ED08151000880252E
:101B48007C6F180E7C6507D079C076F07AC077F084
:101B58007BC078F012008051D8B40BD08151805DE1
:101B6800D8B00ED08051000881257C6F180E7C6596
:101B780007D076C076F077C077F078C078F012009A
:101B8800060E7F6F78BF7F8F7BBF7F8D778FFF0EAD
:101B98007617FF0E7717000E78177A8FFF0E7917D2
:101BA800FF0E7A17000E7B178051815DD8B01BD0CD
:101BB800D89079377A377B37800781518019D8B424
:101BC8000DD07F077FC07CF0070E7C17D8B406D0F5
:101BD800EFD7D890783377337633812B80518119BA
:101BE800D8B41FD0F6D78151805DD8B01AD0D8901C
:101BF800763777377837810781518019D8B40DD077
:101C08007F077FC07CF0070E7C17D8B406D0EFD7CB
:101C1800D8907B337A337933802B80518119D8A4BB
:101C2800F7D77FAF0CD0FF0E761BFF0E771BFF0E8A
:101C3800781B010E7627000E7723000E78237FADE0
:101C48000CD0FF0E791BFF0E7A1BFF0E7B1B010EBB
:101C58007927000E7A23000E7B23000E7F6F7651C2
:101C6800792777517A2378517B237BAF0ED0FF0EEB
:101C7800791BFF0E7A1BFF0E7B1B010E7927000EC6
:101C88007A23000E7B23010E7F6F79C019F07AC08A
:101C98001AF07BC01BF081C01CF07FC01DF05EEC09
:101CA80011F019C076F01AC077F01BC078F0120056
:101CB8001BC01FF0206A216A1A341F3601E32080F6
:101CC8001F50276E2750D8A409D0000E196E000E99
:101CD8001A6E000E1B6E000E1C6E12001EC01FF046
:101CE800206A216A1D341F3601E320801F50266EAA
:101CF8002650D8A409D0000E196E000E1A6E000ED8
:101D08001B6E000E1C6E12001A8EFF0E1916FF0EA7
:101D18001A16000E1B161D8EFF0E1C16FF0E1D1622
:101D2800000E1E16000E226E000E236E000E246E8C
:101D3800000E256E7F0E275E2650980F275E180E20
:101D4800266ED89022362336243625361C50195C48
:101D58001D501A581E501B58D8A007D01C50195E89
:101D68001D501A5A1E501B5A2280D89019361A36FE
:101D78001B36262EE6D727AE16D02750800A970F97
:101D8800D8B009D0000E196E000E1A6E000E1B6E28
:101D9800000E1C6E1200D8902532243223322232D3
:101DA800273EF9D715D0170E27640FD0000E196EED
:101DB800000E1A6E000E1B6E000E1C6E1200D890DC
:101DC800223623362436253627062750D8A4F7D7B7
:101DD80022C019F023C01AF024C01BF025C01CF043
:101DE80012001B341C34246E2450D8A409D0000ED1
:101DF800196E000E1A6E000E1B6E000E1C6E12007D
:101E08001E341F34236E2350D8A409D0000E196E37
:101E1800000E1A6E000E1B6E000E1C6E12001B8E3A
:101E2800FF0E1916FF0E1A16FF0E1B16000E1C16B3
:101E38001E8EFF0E1C16FF0E1D16FF0E1E16000E20
:101E48001F16000E1F6E000E206E000E216E000E73
:101E5800226E7F0E245E2350A00F245E200E236E78
:101E6800D8901F362036213622361C50195C1D505A
:101E78001A581E501B581F501C58D8A009D01C5067
:101E8800195E1D501A5A1E501B5A1F501C5A1F808B
:101E9800D89019361A361B361C36232EE1D724AEB5
:101EA80016D02450800A9F0FD8B009D0000E196EA2
:101EB800000E1A6E000E1B6E000E1C6E1200D890DB
:101EC8002232213220321F32243EF9D715D01F0E7C
:101ED80024640FD0000E196E000E1A6E000E1B6ED1
:101EE800000E1C6E1200D8901F362036213622367E
:101EF80024062450D8A4F7D71FC019F020C01AF020
:101F080021C01BF022C01CF0120075C077F0000140
:101F1800786B796B7435773701E378817751816F06
:101F28008151D8A409D0000E736F000E746F000E93
:101F3800756F000E766F1200170E776F73C078F00A
:101F480074C079F075C07AF077297B6F04D0D89087
:101F58007A33793378337B2FFAD7000178517C6F45
:101F6800748FFF0E7317FF0E7417000E75177351D9
:101F78007D6F74517E6F75517F6F806B8E0E815FA0
:101F880081AF16D08151800A8F0FD8B009D0000ECA
:101F9800736F000E746F000E756F000E766F12006F
:101FA800D89080337F337E337D33813FF9D715D086
:101FB800170E81650FD0000E736F000E746F000E40
:101FC800756F000E766F1200D8907D377E377F3799
:101FD800803781078151D8A4F7D77C51D8B408D06D
:101FE800801F7F1F7E1F7D6D000E7E237F23802331
:101FF8007DC073F07EC074F07FC075F080C076F04D
:10200800120062C02DF02E6A2F6A000161352D364C
:1020180001E32E802D50666F6651D8A407D0000EBC
:10202800606F000E616F000E626F120065C02DF0C8
:102038002E6A2F6A64352D3601E32E802D506B6F82
:102048006B51D8A407D0000E606F000E616F000EB0
:10205800626F12006B517B0F662762C06BF065518F
:102068006B1B800E6B17618F648FFF0E6317FF0E5B
:102078006417000E6517000E676F000E686F000E7C
:10208800696F070E6A6F60A106D0635167276451B4
:10209800682365516923D890623361336033D890DF
:1020A8006337643765376A2FEED7090E6A6F60A108
:1020B80006D0635167276451682365516923D89016
:1020C800623361336033D8906933683367336A2F7A
:1020D800EED767C019F068C01AF069C01BF066C077
:1020E8001CF06BC01DF05EEC11F019C060F01AC056
:1020F80061F01BC062F0120027C02BF02C6A2D6A19
:1021080026342B3601E32C802B500001646F645178
:10211800D8A407D0000E256E000E266E000E276E7E
:1021280012002AC02BF02C6A2D6A29342B3601E3C1
:102138002C802B50656F6551D8A407D0000E256EF2
:10214800000E266E000E276E1200000E616F000E44
:10215800626F000E636F6551890F645F27C065F079
:102168002A50651B800E6517268EFF0E2516FF0E5A
:102178002616000E2716298EFF0E2816FF0E291682
:10218800000E2A16180E606FD890613762376337D1
:102198002850255C295026582A502758D8A007D0FF
:1021A8002850255E2950265A2A50275A6181D890EE
:1021B800253626362736602FE7D761C019F062C06A
:1021C8001AF063C01BF064C01CF065C01DF05EEC23
:1021D80011F019C025F01AC026F01BC027F0120014
:1021E80002D02D4A2E2A2DC0D9FF2EC0DAFF200E8C
:1021F800DE18D8B4F6D72DC0D9FF2EC0DAFF090EE5
:10220800DE18D8B4EED7000E0001646F000E636FBD
:10221800000E626F2DC0D9FF2EC0DAFF2D0EDE181A
:10222800D8A402D0622B25D02DC0D9FF2EC0DAFF4A
:102238002B0EDE18D8A41FD01CD063C027F064C0B2
:1022480028F0000E2A6E0A0E296E90EC17F02DC0A9
:10225800D9FF2EC0DAFFDF500001606F616B275095
:10226800602728506123D00E6025636FFF0E61211F
:10227800646F2D4A2E2A2DC0D9FF2EC0DAFFDF50F9
:10228800B5EC17F0D8B0D9D700016251D8B40DD049
:1022980063C060F064C061F0601F611F604B612B18
:1022A80060C02DF061C02EF0120063C02DF064C034
:1022B8002EF012001C50D8B405D019501A101B105B
:1022C800D8A40CD0000E196E000E1A6E000E1B6EEC
:1022D80012001C2AD8901B321A321932000E191417
:1022E8001E6E000E1A141F6EFE0E1B14206E1E505A
:1022F8001F102010D8B40CD0ECD71C2A010E1926B8
:10230800000E1A22000E1B22D8901B321A321932E4
:10231800000E19141E6E000E1A141F6EFF0E1B14E9
:10232800206E1E501F102010D8B406D0E6D71C0609
:10233800D89019361A361B361ABE03D0020E1C6006
:10234800F6D71CA01A9ED8901C321C501B121D5088
:10235800D8A41B8E19C019F01AC01AF01BC01BF0A4
:1023680012001C6E010E1B6E0001B4B312001CC0DB
:10237800B5F0B491B483B4970E0EBE6F010EBD6F65
:10238800F40EBC6FB485880EC06F310EC16F000E9D
:10239800CC6F000ECD6F880EC26F310EC36F000E6A
:1023A800CE6F000ECF6F880EC46F310EC56F000E52
:1023B800D06F000ED16F880EC66F310EC76F000E3A
:1023C800D26F000ED36F7E0EC86F310EC96F000E2C
:1023D800D46F000ED56FDEEC17F00FEC19F0180E65
:1023E800196E320E1A6EBAEC18F0B20E196E2B0E68
:1023F8001A6EB5EC18F0000E1B6E120047B296EF7D
:1024080012F00AEC18F0D8B00AD026D09BEC18F0DD
:10241800120094EC18F0120086EC18F01200D2C0EA
:1024280019F0D3C01AF020EEC6F001D80AD0050082
:10243800FA6EDE50FD6EDE50FE6EF850FF6EFA50FA
:102448001200010AD8B4E8D7030AD8B4DFD7010AC2
:10245800D8B4DFD7070AE0D70001B497B6C0D9FFD0
:10246800B7C0DAFFB64BB72BDF50DCEC18F0000131
:10247800B807D8A0B907B851B911D8A404D0000E2C
:102488001B6E060E03D0000E1B6E030E1A6E1A503A
:102498001200000168AF16D066C06CF067C06DF01E
:1024A80068C06EF06C1F6D1F6E1F6C2B000E6D23C5
:1024B8006E23000E6C25666F000E6D21676F800E0F
:1024C8006E21686F6BAF16D069C06CF06AC06DF092
:1024D8006BC06EF06C1F6D1F6E1F6C2B000E6D2392
:1024E8006E23000E6C25696F000E6D216A6F800ED9
:1024F8006E216B6F000E661B000E671B800E681B3B
:10250800000E691B000E6A1B800E6B1B6951665D0D
:102518006A5167596B516859D8B002D0D8901200E7
:10252800D88012002BEC18F0D8B00AD026D0F8ECDE
:1025380018F01200F4EC18F01200ECEC18F012008D
:10254800D2C001F0D3C002F020EEC6F001D80AD004
:102558000500FA6EDE50FD6EDE50FE6EF850FF6E1E
:10256800FA501200010AD8B4E8D7030AD8B4DFD762
:10257800010AD8B4DFD7070AE0D70001B497B6C07C
:10258800D9FFB7C0DAFFB64BB72BDF50FCEC18F019
:102598000001B807D8A0B907B851B911D8A404D018
:1025A800000E026E060E03D0000E026E030E016EC0
:1025B80001501200000E246E22AE06D0216C221E9D
:1025C800D8B0222A010E246E20AE06D01F6C201E21
:1025D800D8B0202A010E241A000E266E000E256E91
:1025E80021502210D8B41CD0010E236E04D0D890EC
:1025F80021362236232A22AEFAD7D8902536263617
:1026080021501F5C22502058D8A005D021501F5EB1
:102618002250205A2580D89022322132232EEDD7FD
:102628002450D8B404D0256C261ED8B0262A25C03C
:102638001FF026C020F01200000E216E000E226E40
:10264800000E236E000E246E1D501E101F10201049
:10265800D8B42AD0010E256E06D0D8901D361E3665
:102668001F362036252A20AEF8D7D89021362236B4
:10267800233624361D50195C1E501A581F501B58FB
:1026880020501C58D8A009D01D50195E1E501A5A47
:102698001F501B5A20501C5A2180D89020321F32BC
:1026A8001E321D32252EE1D721C019F022C01AF0A2
:1026B80023C01BF024C01CF0120047B29EEF13F099
:1026C80013EC19F0B6C0D9FFB7C0DAFFDF6E00010E
:1026D800B64BB72BB807D8A0B907B851B911D8B4B9
:1026E80004D003EC19F0050E1200B48506D071EC85
:1026F80018F0120078EC18F01200CCC019F0CDC018
:102708001AF020EEC0F001D80AD00500FA6EDE50AB
:10271800FD6EDE50FE6EF850FF6EFA501200010A90
:10272800D8B4E8D7030AD8B4E2D7010AD8B4DFD7B7
:10273800070AE0D723EC19F0B6C0D9FFB7C0DAFF13
:10274800DF6E0001B64BB72BB807D8A0B907B85150
:10275800B911D8B404D009EC19F0050E1200B485EB
:1027680006D0E0EC18F01200E4EC18F01200CCC02F
:1027780001F0CDC002F020EEC0F001D80AD005006B
:10278800FA6EDE50FD6EDE50FE6EF850FF6EFA50A7
:102798001200010AD8B4E8D7030AD8B4E2D7010A6C
:1027A800D8B4DFD7070AE0D7000E1E6E1AAE06D0DF
:1027B800196C1A1ED8B01A2A010E1E6E1CAE04D04F
:1027C8001B6C1C1ED8B01C2A1B501C10D8B418D067
:1027D800010E1D6E04D0D8901B361C361D2A1CAE67
:1027E800FAD71B50195C1C501A58D8A004D01B509B
:1027F800195E1C501A5AD8901C321B321D2EF1D764
:102808001E50D8B404D0196C1A1ED8B01A2A19C090
:1028180019F01AC01AF0120071A202D071987188CA
:102828004050D8A420D03D50010DE80EF324D96EB5
:10283800000EF420DA6E74CFDFFF3D50010DE80E74
:10284800F324D96E000EF420DA6E0D0EDE18D8A42B
:1028580002D0010E406E070E3D6402D0020E406E9B
:102868003D2A3B2A12004004D8B404D0020E401876
:10287800D8A403D074CF02F0120074CF03F0120072
:102888002A502B102C102D10D8B424D0010E2E6EE7
:1028980006D0D8902A362B362C362D362E2A2DAE39
:1028A800F8D72A50265C2B5027582C5028582D50E2
:1028B8002958D8A008D02A50265E2B50275A2C50C9
:1028C800285A2D50295AD8902D322C322B322A32A0
:1028D8002E2EE7D726C026F027C027F028C028F0DC
:1028E80029C029F0120021EE00F010EE60F0310E40
:1028F800DBCFE3FFE806FCE2000E0001936F000E59
:10290800926F93BF06D093511DE1320E925DD8B0FD
:102918001200600E9225D96E000E9321DA6EDF50F8
:10292800B6EC16F0030E1B6E080E1A6E770EE82E24
:10293800FED71A2EFCD71B2EFAD700F00001924BB7
:10294800932BDFD7120047B232EF15F00001B485A0
:102958000AD08DEC18F0120011EC19F0030E1200D9
:1029680086EC18F01200CCC019F0CDC01AF020EE99
:10297800C0F001D80AD00500FA6EDE50FD6EDE50B8
:10298800FE6EF850FF6EFA501200010AD8B4E8D76C
:10299800030AD8B4DED7010AD8B4DBD7070AD8B4FB
:1029A800DBD7DED7206E09D0000E05D0400E03D04D
:1029B800800E01D0C00E416E0DD02050000AD8B450
:1029C800F3D7010AD8B4F2D7030AD8B4F1D7010A69
:1029D800D8B4F0D71F50030B41121EC042F0500E5E
:1029E800B5EC11F0410E196E000E1A6E000E1C6E39
:1029F800020E1B6EC4EC17F0D8EC18F0346E1200FF
:102A08008E0E296E06D0D8902432233222322132FB
:102A1800292A000E2114256E000E2214266E000E9F
:102A28002314276EFF0E2414286E25502610271015
:102A38002810D8A4E8D721C019F022C01AF023C062
:102A48001BF029C01CF0000E1D6E5EEC11F019C0C1
:102A580021F01AC022F01BC023F012000001B48537
:102A68000AD0F0EC18F0120021EC19F0030E120055
:102A7800ECEC18F01200CCC001F0CDC002F020EE52
:102A8800C0F001D80AD00500FA6EDE50FD6EDE50A7
:102A9800FE6EF850FF6EFA501200010AD8B4E8D75B
:102AA800030AD8B4DED7010AD8B4DBD7070AD8B4EA
:102AB800DBD7DED70A0D48656C6C6F2E2057656C26
:102AC800636F6D6520746F20454520486F7370698A
:102AD80074616C200A0D0000000000000000000076
:102AE8000000000000009030E82FD22F0424C226F6
:102AF8007E304E29363128311A310C31FE30F03013
:102B0800E230FE2F002CBC0EF66E2A0EF76E000E79
:102B1800F86E01EE00F010EE52F00900F5CFEEFF6E
:102B2800E550E150FAE101EE68F0100EEE6AE806B1
:102B3800FDE100EEB4F0440EEE6AE806FDE100EEB9
:102B480030F0130EEE6AE806FDE147904792000E5A
:102B5800F86E0001D0EF05F0ABA202D0AB98AB88BD
:102B68003A50D8A415D0AECF06F006C001F03750C1
:102B780050EC17F00D0E0618D8A402D0010E3A6ECC
:102B88000F0E376402D0020E3A6E372A352A120029
:102B98003A04D8B404D0020E3A18D8A403D0AECF61
:102BA80004F01200AECF05F0120047B24DEF16F058
:102BB8000FEC19F00001B4A707D00AEC18F0D8A060
:102BC80003D00F0E0001BE6F0001BE51020D320E80
:102BD800F324D96E010EF420DA6E01D80AD005006C
:102BE800FA6EDE50FD6EDE50FE6EF850FF6EFA5043
:102BF80012000001BE6F120047B271EF16F000011B
:102C0800B497020EBF6F06D08DEC18F0120086EC58
:102C180018F01200D0C019F0D1C01AF020EEC4F09C
:102C280001D80AD00500FA6EDE50FD6EDE50FE6E49
:102C3800F850FF6EFA501200020AD8B4E5D7010A1C
:102C4800D8B4E2D7E4D7A39AA398440E196E2E0EEF
:102C58001A6ECEEC18F0200E196E280E1A6ED3ECF0
:102C680018F0080E706E900E716E040E726EA00E43
:102C7800756E010E766E000E3F6E000E3E6E080EEB
:102C8800466E000E3D6E000E3C6E000E3B6EA38A33
:102C980012001FEC19F00001B4A707D02BEC18F0B4
:102CA800D8A003D00F0E0001BE6F0001BE51020D67
:102CB800320EF324D96E010EF420DA6E01D80AD050
:102CC8000500FA6EDE50FD6EDE50FE6EF850FF6EA7
:102CD800FA5012000001BE6F12000001B497020EF4
:102CE800BF6F06D0F0EC18F01200ECEC18F01200F0
:102CF800D0C001F0D1C002F020EEC4F001D80AD053
:102D08000500FA6EDE50FD6EDE50FE6EF850FF6E66
:102D1800FA501200020AD8B4E5D7010AD8B4E2D7AB
:102D2800E4D70001855186118711D8B406D0000E6A
:102D3800851B000E861B800E871B82C076F083C021
:102D480077F084C078F085C079F086C07AF087C0C3
:102D58007BF085EC0DF076C082F077C083F078C008
:102D680084F01200196E4550D8B4FDD79DB803D031
:102D780019C0ADFF12D09D983950010D680EF3248B
:102D8800D96E010EF420DA6E19C0DFFF392A0F0E52
:102D9800396402D0000E396E45069D881200000E77
:102DA800246E22AE06D0216C221ED8B0222A010E33
:102DB800246E21C019F022C01AF01B6A8E0E1C6EF8
:102DC80024C01DF05EEC11F019C021F01AC022F0E9
:102DD8001BC023F012009D9A9D98080EB86E900EA5
:102DE800AB6E240EAC6EA00EAF6E010EB06E000E70
:102DF800396E000E386E100E456E000E376E000EDE
:102E0800366E000E356E9D8A12001C6E010E1D6E08
:102E18000001B4B111D0B481000E1D6E1C50D8B49D
:102E280002D0010E01D0020EBE6F1BEC19F051EC5E
:102E380018F0D8A0D1EC17F01D501200080E46600B
:102E480012D03E50010DF00EF324D96E000EF4207E
:102E5800DA6EDF50736E3E2A070E3E6402D0000E13
:102E68003E6E462A1200A3981200100E456012D03A
:102E78003850010D680EF324D96E010EF420DA6E75
:102E8800DF50AD6E382A0F0E386402D0000E386E4F
:102E9800452A12009D981200036E818C819A03C006
:102EA80002F01F0E02168150E00B0210816E000E18
:102EB800926E01C080FF00D000D0818A00D000D07F
:102EC800818C92681200000E896E000E8A6E000EC8
:102ED8008B6E92689368BF0E946E240E0F013A6F42
:102EE8003F0E396F2F0E386F000E616EF18E120093
:102EF8001A6E9268819C818A1AC019F01F0E1916E1
:102F08008150E00B1910816E00D000D080CF1BF0EB
:102F1800818A818C1B50120027502902F3CF2BF095
:102F2800F4CF2CF027502A02F3502C2628502902DF
:102F3800F3502C262BC027F02CC028F01200195073
:102F48001A101B10D8B406D0000E191A000E1A1A3F
:102F5800800E1B1A19C019F01AC01AF01BC01BF0FA
:102F680012001B6E000E1A6E3A0E1B6005D02F0E53
:102F78001B6402D0010E1A6E1AC019F01930120023
:102F88000001B4A5120019C0B6F01AC0B7F01BC0F2
:102F9800B8F01CC0B9F0B495120008D0000E196E34
:102FA800000E1A6E36EC18F0D9EC15F00001B4A139
:102FB8001200F4D7C6BA1200000EC76E280EC66EED
:102FC800000EC56E270EC86E120047B259EF18F0F2
:102FD8000001B487B551B525DCEC18F0030E1200DA
:102FE80047B261EF18F00001B487D880B535DCEC42
:102FF80018F0050E120047B269EF18F031EC19F01D
:103008000001B491000EBF6F0E0E1200C550BF0B29
:103018004009C56EC538E832E832010B196E19301F
:1030280012001DEC19F067EC17F0A2EC18F0EFECA9
:1030380016F027EC16F01200000E0F01386F000E84
:10304800396F800E936E9268818A818C1200C55008
:10305800BF0B4009C56EC538E832E832010B016E76
:10306800013012009EB612009EB61200850EE82EA0
:10307800FED700F0F9D747B2A9EF18F00001B497CE
:1030880015EC19F0040E120047B2AFEF18F000016A
:10309800B491000EBF6F0E0E12009DA603D0196AE0
:1030A800192A01D0196A193012000001B487B551E4
:1030B800B525FCEC18F0030E12000001B487D88087
:1030C800B535FCEC18F0050E120032EC19F00001D1
:1030D800B491000EBF6F0E0E120047B2E0EF18F069
:1030E80000EC19F0090E120047B2E4EF18F000ECFA
:1030F80019F00A0E120047B2E8EF18F003EC19F0C5
:10310800050E120047B2ECEF18F017EC19F0000E9C
:10311800120047B2F0EF18F019EC19F0010E120086
:1031280047B2F4EF18F019EC19F0020E120047B28A
:10313800F8EF18F019EC19F0010E1200720ED36EA8
:10314800040ED26E400E9B6E12000001B49725EC5F
:1031580019F0040E12000001B491000EBF6F0E0E9C
:10316800120019C030F01AC031F0120019C032F044
:103178001AC033F0120047B227EF19F0050E1200FB
:1031880047B229EF19F0010E12001A6E1A50B6EC68
:1031980016F0120019C043F01AC044F0120019C00A
:1031A800F8F01AC0F9F01200000E09EC17F012003E
:1031B800196E19C0C9FF120006EC19F0090E1200A9
:1031C80006EC19F00A0E120009EC19F0050E1200AF
:1031D8002BEC19F0000E12002DEC19F0010E120064
:1031E8002DEC19F0020E12002DEC19F0010E120050
:1031F800016E01C0C9FF1200C58AC5881200C59AB0
:10320800C5881200C58AC5881200C59AC5881200EB
:103218002FEC19F012009E9612009E861200C950DB
:103228001200C5861200C5841200C5821200C5802E
:103238001200D09E12009E9612009E861200C9505F
:103248001200C5861200050E1200010E1200C58478
:0E3258001200C5821200A19612001200120090
:107CF40000010000000A00000064000000E8030026
:107D04000010270000A086010040420F00809698D2
:107D14000000E1F50500CA9A3B00803F00204100C5
:107D2400C842007A44401C4650C3472474499718FB
:107D34004BBCBE4C6B6E4E03155079AD60F349716C
:107D440000803FCDCC3DD7233C12833AB7D138C60F
:107D54002737388635C0D633CC2B32708930E7DBF1
:107D64002EE53C1E42A20D0A0D456E74657220611B
:107D740020636F6D6D616E642028493A20696E63DB
:107D840072656D656E742C20443A20646563726577
:107D94006D656E742C20533A2073657420706F697E
:107DA4006E742C20543A207374617475732C2048BB
:107DB4003A2068656C702C20503A206572726F729C
:107DC4002073746174757329203A20000A28493A93
:107DD40020696E6372656D656E742C20443A20646C
:107DE400656372656D656E742C20533A20736574F7
:107DF40020706F696E742C20543A2073746174750A
:107E0400732C20483A2068656C702C20503A206509
:107E140072726F722073746174757329000A0D4550
:107E240072726F72206C6576656C206973203020E5
:107E3400616E64206973207365766572652E2041D6
:107E4400646A757374696E67206D6F746F722073E2
:107E5400706565642E000A5468652076616C7565EA
:107E640020656E746572656420697320746F6F2079
:107E74006C617267652C207265656E74657220632F
:107E84006F6D6D616E64000A0D4572726F72206CC5
:107E94006576656C206973203220616E6420697395
:107EA400206F6620636F6E6365726E20000A0D4555
:107EB40072726F72206C6576656C20697320312054
:107EC400616E64206973206D6F6465726174652EE0
:107ED40000556E7265636F676E697A656420636FBF
:107EE4006D6D616E642E2054727920616761696ED4
:107EF4002E200A0044656372656D656E742073708C
:107F0400656564206F66206D6F746F722E200A0D94
:107F1400000A546865206D6F746F72206973207352
:107F2400657420746F20252E3166252500496E6303
:107F340072656D656E74207370656564206F66206C
:107F44006D6F746F722E20000A546865206D6F7413
:107F54006F722069732073657420746F2025642503
:107F6400250044697361626C65204572726F7220EA
:107F74005072696E74696E67200A00456E61626CA6
:107F840065204572726F72205072696E74696E67F3
:107F9400200A0053706563696679207365742070E4
:107FA4006F696E742E200A0D000A0D4572726F728D
:107FB400206C6576656C2069732066696E65000ABD
:107FC4000D4572726F722069733A2025302E316626
:107FD400252520000A0D456E746572206120636FAB
:107FE4006D6D616E643A20000A0D4E6577207370E2
:0B7FF4006565642069732025640000AF
:020000040020DA
:08000000FFFFFFFFFFFFFFFF00
:020000040030CA
:0E000000FF281F3CFFBF85FF0FC00FE00F4021
:00000001FF
